:020000040800F2
:1000000000000220C90A0008BD0A000829C3000830
:10001000BD0A0008BD0A0008BD0A00080000000073
:10002000000000000000000000000000BD0A000801
:10003000BD0A000800000000BD0A0008ADC20008AB
:10004000BD0A0008BD0A0008BD0A0008BD0A000874
:10005000BD0A0008BD0A0008BD0A0008BD0A000864
:10006000BD0A0008BD0A0008BD0A000889960008FC
:100070009596000811710008A1960008AD96000839
:1000800085BB0008097E0008BD0A0008BD0A0008FB
:10009000BD0A0008BD0A0008BD0A0008BD0A000824
:1000A000BD0A0008BD0A0008BD0A0008BD0A000814
:1000B000D19C0108DD9C0108E99C01083D7E0008F7
:1000C000BD0A0008497E0008BD0A0008A9A700086B
:1000D000B5A70008B9B90008E5B9000819BA0008C1
:1000E000BD0A0008BD0A000800000000BD0A0008A3
:1000F000BD0A0008BD0A0008BD0A0008BD0A0008C4
:10010000BD0A0008BD0A0008F59C0108C1A7000847
:100110004DBA000881BA000831740008BD0A000811
:100120001974000825740008E5A7000819A800083C
:10013000B9BB0008BD0A0008BD0A0008BD0A0008D6
:1001400000000000000000000000000000000000AF
:10015000BD0A0008BD0A0008BD0A0008B5BA0008BB
:10016000557E0008BD0A0008BDC20008E1C20008B3
:10017000BD0A000805C30008BD0A0008BD0A000842
:10018000BD0A0008BD0A0008E9BA00081DBB000846
:10019000CDA70008D9A70008BD0A0008BD0A0008BD
:1001A000BD0A0008BD0A0008BD0A0008BD0A000813
:1001B0007D930008BD0A0008BD0A0008BD0A0008BA
:1001C000BD0A0008BD0A0008A1690008AD69000861
:1001D000BD0A0008B9690008BD0A0008BD0A000888
:1001E000BD0A0008BD0A0008BD0A0008BD0A0008D3
:1001F000BD0A0008BD0A0008BD0A0008BD0A0008C3
:10020000BD0A0008BD0A0008BD0A0008BD0A0008B2
:10021000BD0A0008BD0A0008BD0A0008BD0A0008A2
:10022000BD0A0008BD0A0008BD0A00080000000061
:10023000BD0A0008BD0A000800000000BD0A000851
:10024000BD0A0008BD0A0008BD0A0008BD0A000872
:10025000BD0A0008BD0A0008BD0A0008BD0A000862
:10026000BD0A0008BD0A0008BD0A0008BD0A000852
:10027000BD0A0008BD0A000851BB000800000000CC
:10028000BD0A0008BD0A0008BD0A00080000000001
:0802900000000000BD0A000897
:1002A00010B5054C237833B9044B13B10448AFF3B0
:1002B00000800123237010BD4807002400000000C7
:1002C000B8E9010808B5034B1BB103490348AFF374
:1002D000008008BD000000004C070024B8E90108B8
:1002E00010F8012B11F8013B012A28BF9A42F7D0E0
:1002F000D01A70470000000000000000000000005D
:1003000001F0FF01102A2BDB10F0070F08D010F8C6
:10031000013B013A8B422DD010F0070F42B3F6D1CA
:10032000F0B441EA012141EA014122F007047FF0E3
:1003300000070023F0E80256083C85EA010586EA3A
:10034000010685FA47F5A3FA87F586FA47F6A5FA76
:1003500087F68EB9EED1F0BC01F0FF0102F0070282
:1003600032B110F8013B013A83EA010313B1F8D12D
:100370000020704701387047002D06BF354603380E
:10038000073815F0010F07D1013015F4807F02BF47
:10039000013015F4C03F0130F0BC0138704700BF98
:1003A00081F0004102E000BF83F0004330B54FEA26
:1003B00041044FEA430594EA050F08BF90EA020F93
:1003C0001FBF54EA000C55EA020C7FEA645C7FEA26
:1003D000655C00F0E2804FEA5454D4EB5555B8BF49
:1003E0006D420CDD2C4480EA020281EA030382EABA
:1003F000000083EA010180EA020281EA0303362D4C
:1004000088BF30BD11F0004F4FEA01314FF4801C1E
:100410004CEA113102D0404261EB410113F0004F30
:100420004FEA03334CEA133302D0524263EB4303E7
:1004300094EA050F00F0A780A4F10104D5F1200E85
:100440000DDB02FA0EFC22FA05F2801841F10001E0
:1004500003FA0EF2801843FA05F359410EE0A5F1B4
:1004600020050EF1200E012A03FA0EFC28BF4CF0E5
:10047000020C43FA05F3C01851EBE37101F000459B
:1004800007D54FF0000EDCF1000C7EEB00006EEBA8
:100490000101B1F5801F1BD3B1F5001F0CD3490832
:1004A0005FEA30004FEA3C0C04F101044FEA445289
:1004B00012F5800F80F09A80BCF1004F08BF5FEA10
:1004C000500C50F1000041EB045141EA050130BDF0
:1004D0005FEA4C0C404141EB0101013C28BFB1F502
:1004E000801FE9D291F0000F04BF01460020B1FA4D
:1004F00081F308BF2033A3F10B03B3F120020CDA20
:100500000C3208DD02F1140CC2F10C0201FA0CF0FD
:1005100021FA02F10CE002F11402D8BFC2F1200C62
:1005200001FA02F120FA0CFCDCBF41EA0C01904018
:10053000E41AA2BF01EB0451294330BD6FEA040461
:100540001F3C1CDA0C340EDC04F11404C4F120024C
:1005500020FA04F001FA02F340EA030021FA04F35E
:1005600045EA030130BDC4F10C04C4F1200220FAB5
:1005700002F001FA04F340EA0300294630BD21FAF3
:1005800004F0294630BD94F0000F83F4801306BFB9
:1005900081F480110134013D4EE77FEA645C18BFAD
:1005A0007FEA655C29D094EA050F08BF90EA020F44
:1005B00005D054EA000C04BF1946104630BD91EA3C
:1005C000030F1EBF0021002030BD5FEA545C05D13F
:1005D0004000494128BF41F0004130BD14F580047E
:1005E0003CBF01F5801130BD01F0004545F0FE41F2
:1005F00041F470014FF0000030BD7FEA645C1ABF27
:10060000194610467FEA655C1CBF0B46024650EA5D
:10061000013406BF52EA033591EA030F41F4002189
:1006200030BD00BF90F0000F04BF0021704730B50F
:100630004FF4806404F132044FF000054FF00001E4
:1006400050E700BF90F0000F04BF0021704730B5A5
:100650004FF4806404F1320410F0004548BF40427A
:100660004FF000013EE700BF42004FEAE2014FEACF
:1006700031014FEA02701FBF12F07F4393F07F4FAA
:1006800081F06051704732F07F4208BF704793F0AD
:100690007F4F04BF41F40021704730B54FF46074C0
:1006A00001F0004521F000411CE700BF50EA0102C3
:1006B00008BF704730B54FF000050AE050EA01026C
:1006C00008BF704730B511F0004502D5404261EBDC
:1006D00041014FF4806404F132045FEA915C3FF41D
:1006E000D8AE4FF003025FEADC0C18BF03325FEABA
:1006F000DC0C18BF033202EBDC02C2F1200300FA6B
:1007000003FC20FA02F001FA03FE40EA0E0021FA8F
:1007100002F11444BDE600BF7BB972B90029BEBF27
:1007200000204FF0004106E008BF00281CBF6FF01A
:1007300000414FF0FF3000F0BFB9ADF1080C6DE99A
:1007400004CE002909DB002B1ADB00F04DF8DDF8A0
:1007500004E0DDE9022304B07047404261EB41014F
:10076000002B1BDB00F040F8DDF804E0DDE902239C
:1007700004B0404261EB4101524263EB43037047D6
:10078000524263EB430300F02FF8DDF804E0DDE9AB
:10079000022304B0404261EB41017047524263EBD7
:1007A000430300F021F8DDF804E0DDE9022304B0A2
:1007B000524263EB4303704753B94AB9002908BF5B
:1007C00000281CBF4FF0FF314FF0FF3000F074B92C
:1007D000ADF1080C6DE904CE00F006F8DDF804E098
:1007E000DDE9022304B070472DE9F047089D044677
:1007F0008E46002B4DD18A42944669D9B2FA82F2D4
:1008000052B101FA02F3C2F1200120FA01F10CFA0F
:1008100002FC41EA030E94404FEA1C48210CBEFB47
:10082000F8F61FFA8CF708FB16E341EA034306FBD0
:1008300007F199420AD91CEB030306F1FF3080F05F
:100840001F81994240F21C81023E63445B1AA4B2AC
:10085000B3FBF8F008FB103344EA034400FB07F74E
:10086000A7420AD91CEB040400F1FF3380F00A818F
:10087000A74240F207816444023840EA0640E41B84
:1008800000261DB1D4400023C5E900433146BDE830
:10089000F0878B4209D9002D00F0EF800026C5E9D2
:1008A000000130463146BDE8F087B3FA83F6002EEA
:1008B0004AD18B4202D3824200F2F980841A61EB62
:1008C000030301209E46002DE0D0C5E9004EDDE780
:1008D00002B9FFDEB2FA82F2002A40F09280A1EB68
:1008E0000C014FEA1C471FFA8CFE0126200CB1FBBD
:1008F000F7F307FB131140EA01410EFB03F08842B6
:1009000008D91CEB010103F1FF3802D2884200F242
:10091000CB804346091AA4B2B1FBF7F007FB1011D4
:1009200044EA01440EFB00FEA64508D91CEB040472
:1009300000F1FF3102D2A64500F2BB800846A4EBCD
:100940000E0440EA03409CE7C6F12007B34022FAB8
:1009500007FC4CEA030C20FA07F401FA06F31C43E7
:10096000F9404FEA1C4900FA06F3B1FBF9F8200CF4
:100970001FFA8CFE09FB181140EA014108FB0EF03A
:10098000884202FA06F20BD91CEB010108F1FF3A8A
:1009900080F08880884240F28580A8F10208614496
:1009A000091AA4B2B1FBF9F009FB101144EA0141A4
:1009B00000FB0EFE8E4508D91CEB010100F1FF344F
:1009C0006CD28E456AD90238614440EA0840A0FBE7
:1009D0000294A1EB0E01A142C846A64656D353D0BD
:1009E0005DB1B3EB080261EB0E0101FA07F722FAE1
:1009F00006F3F1401F43C5E9007100263146BDE80A
:100A0000F087C2F12003D8400CFA02FC21FA03F36C
:100A1000914001434FEA1C471FFA8CFEB3FBF7F0ED
:100A200007FB10360B0C43EA064300FB0EF69E4212
:100A300004FA02F408D91CEB030300F1FF382FD2AB
:100A40009E422DD9023863449B1B89B2B3FBF7F653
:100A500007FB163341EA034106FB0EF38B4208D92C
:100A60001CEB010106F1FF3816D28B4214D9023E6D
:100A70006144C91A46EA004638E72E46284605E78B
:100A80000646E3E61846F8E64B45A9D2B9EB02085C
:100A900064EB0C0E0138A3E74646EAE7204694E7EC
:100AA0004046D1E7D0467BE7023B614432E730461F
:100AB00009E76444023842E7704700BF684620F007
:100AC00007018D46FEE7000009480A4A0A49121A42
:100AD00008B51AF08DFB0948094A0021121A1AF0CC
:100AE00095FB0BF08BFE1AF04FFB03F07FFAFEE74D
:100AF000000000244407002400EA010848070024FD
:100B0000ECFB05247047704770477047704770478B
:100B10007047402070478020704701207047704721
:100B2000704710B5044640F2344119F01EFE2046CD
:100B300010BD1BB913690BB1D268184770470B225F
:100B40000270FF2242700022C0E90122C260704799
:100B500013B50446C0E9032114210BF079FB044BC3
:100B600020460094D4E901120BF08CF902B010BDBC
:100B7000330B00080346007920B1187FA0F17F03F2
:100B800058425841704708B5837D1BB9BDE80840FD
:100B900006F0D6BF06F0D4FF80F00100C0B208BD59
:100BA000036870B50E46DB68044615469847B042A8
:100BB00005D823682046DB689847013886B2236849
:100BC0002046A6809B689847A84205D823682046FF
:100BD0009B689847013885B2E58070BD13B504461F
:100BE0008DF807101830002106F0B6FF64230122AB
:100BF0000DF1070120460AF03DF802B010BD0000DB
:100C000038B56FF0F4130025044645610562C0E96C
:100C10000053C0E902332830FFF791FF04F13C0094
:100C2000FFF78DFF04F15800FFF789FF04F174000E
:100C30002567FFF784FF04F19800FFF780FF04F1B8
:100C4000B400FFF77CFF04F1C800FFF778FF04F55C
:100C5000B270FFF774FF04F5BE70FFF770FF04F584
:100C6000CA7005F0E7FC8023164A04F5134084F8A7
:100C70004D3247F67073C4F8A451A4F84E3240F2D6
:100C80000F73C4F86052A4F8503204F51973C4F815
:100C9000543240F20113C4E9963504F51043C3F809
:100CA000F422C3F8FC52FFF74AFF04F51340143056
:100CB000FFF745FF04F517402830FFF740FF2046B7
:100CC00038BD00BF94CC01084E4A08B502EB401372
:100CD0002DED048BD3ED007A93ED018AD3ED028ADA
:100CE00077EEA77A38EE088A78EEA88A042857D8D3
:100CF000DFE800F0031E34596900B3EE040A9FEDEB
:100D0000427A9FED429A4248A7EE870A19F064FCA6
:100D100028EE090A3E4819F0C3FC9FED3E0A3C4804
:100D2000A8EE890ABDEC048BBDE8084019F0FEBCB2
:100D3000B3EE040A9FED347A9FED349A3648A7EE5D
:100D4000870A19F049FC28EE090A334819F0A8FC73
:100D50009FED300A3048A8EE890AE3E72F4BDFED1C
:100D60002B6A9FED2C7A1A78A7EEA67A83ED028A79
:100D700007EE902AF3EE006AF8EEE77A83ED017A47
:100D800067EE887AB0EE007AFCEEE77AA8EE667A33
:100D9000C3ED037AF8EE677A77EE877AC3ED097AC6
:100DA000BDEC048B08BD9FED1B7ADFED186AB0EE39
:100DB000476A1B4BA8EE267AA7EEA66A83ED017A56
:100DC00083ED006AECE7B0EE670A164892ED239ACD
:100DD00019F0B2FAB0EE480A124819F0DDFAF2EE54
:100DE000007A9FED0C0A0F48A8EEA70A19F06AFADC
:100DF00039EE090A0B48BDEC048BBDE8084019F038
:100E000045BA00BF84D3032400409C466666E63E94
:100E100038D40324CDCCCC3D6C91052450D303248D
:100E2000B8910524D0870324062810B504462DED7B
:100E3000048B82B03BD8B1EE049AB2EE088A30EE51
:100E4000090AF0EE480A20EE080AC0EE088A1AF0F5
:100E5000C5F8194B53F82410184BB0EE487A53F8E4
:100E6000240000230193FDEEE88A984213DD51F837
:100E70002320013307EE902AF8EEE77A70EE677AC6
:100E8000F0EEE77AF4EEC87AF1EE10FA44BFB0EE75
:100E9000678A0192E9E7DDED017AF8EEE88AF8EE7B
:100EA000E77AE8EE877A87EE870A30EE490A02B0E1
:100EB000BDEC048B10BD00BF040000241CCD010854
:100EC00010B52E4C00212E4808F04AF9D4220146D4
:100ED00020461AF08DF9D4F8CC202A4B9A424AD1F8
:100EE000D4F8D030022B46D1A022214626481AF051
:100EF0007FF9D4F8A020254B01201A60D4F8A42053
:100F0000234B1A6094F8A820224B1A7094F8A92059
:100F1000214B1A70D4F8AC20204B1A60D4F8B020C2
:100F20001F4B1A6094F8B4201E4B1A7094F8B52029
:100F30001D4B1A7094F8B6201C4B1A7094F8B72009
:100F40001B4B1A70D4F8B8201A4B1A7094F8BC20B6
:100F5000194B1A7094F8BD20184B1A70D4F8C020A1
:100F6000174B1A70D4F8C420164B1A7094F8C82086
:100F7000154B1A7010BD0020FCE700BF98900524A7
:100F800048F904244E41524784D303244C000024E2
:100F900040000024988703249687032484000024BB
:100FA000EC000024CD8703242DD40324A087032440
:100FB00034D403244CD303249490052488000024C3
:100FC000890000248B0000248D00002470B5294C7A
:100FD000A02229492046294D1AF00AF9284B002160
:100FE00028461B68C4F8A030264B1B68C4F8A43000
:100FF000254B1B7884F8A830244B1B7884F8A93043
:10100000234B1B68C4F8AC30224B1B68C4F8B030CB
:10101000214B1B7884F8B430204B1B7884F8B53012
:101020001F4B1B7884F8B6301E4B1B7884F8B73002
:101030001D4B1B78C4F8B8301C4B1B7884F8BC30AF
:101040001B4B1B7884F8BD301A4B1B78C4F8C0309A
:10105000194B1B78C4F8C430184B1B7884F8C8307F
:1010600007F0CCFF23462846D4220021BDE870407B
:1010700007F0C0BF9890052484D3032448F90424C2
:101080004C00002440000024988703249687032402
:1010900084000024EC000024CD8703242DD40324F5
:1010A000A087032434D403244CD303249490052430
:1010B00088000024890000248B0000248D00002477
:1010C00084B0F8B506AC0D4684E80F009DF81830E2
:1010D0009DF820409DF82120062B3CD8DFE803F046
:1010E00045043B4D3B3BB100634B002A37D007EE34
:1010F000904A0126DFED610AB0EE000AF8EE677A49
:101100001E705F4B354477EEE07A1A70F2EE080AF3
:101110005C4BEDB21C705C4BC7EEA00A1D7019F061
:10112000C3FCDFED5A7A5A4B20EE270A83ED000A02
:10113000584B1B780BB19D4203D1574B1E70574B38
:101140001C70574B1B780BB19D4204D1554B0122AB
:101150001A70554B1C70BDE8F84004B070471A7007
:101160004D4B1A704F4B1A70F5E70023424A13702B
:10117000494A13704B4A1370EDE707EE902A9FED32
:101180004B7A4B4B0021F8EE676A4A4803EB840325
:10119000C6EE877AC3ED007A0346EEB247690136A0
:1011A000B74227D1132C0AD80F2C0AD94901113C78
:1011B0000B44022C0AD8DFE804F00C0F1200502C6C
:1011C00010D0BDE8F84004B0FFF700BFC3ED007ACF
:1011D000F7E7C3ED017AF4E7C3ED027AF1E7C3ED77
:1011E000037AEEE73F2A03EB411394BF0024012466
:1011F0001C77E6E7013120300529CED1072C07D036
:101200000A2C0FD0012CA6D12B4BC3ED007AA2E7FC
:101210009FED2A7A2A4B67EE877AFDEEE77AC3EDD7
:10122000007ACEE7274B1B78002B94D1264B9FEDFD
:10123000237AC3ED007A67EE877A244BFDEEE77AD6
:10124000EDE744EAC214FFEE000A9FED217AB0EE0A
:10125000000A07EE904AF8EEE77AE7EE870AF2EE28
:10126000087A70EEA00AC0EEA70A19F01DFC194B0F
:1012700083ED000A6FE700BF9DD6032400008A4279
:1012800044F9042410010024080100240000DC4378
:101290000C010024890000243CD303248A0000248C
:1012A0008B00002444D303248C0000240000FE4261
:1012B0009CD4032484D30324909005240000C842C6
:1012C0004C00002496870324700000244000002472
:1012D0000000003914010024D0E90223407C0028DA
:1012E00014BF10461846704738B5054619461046D3
:1012F0002B681A68002904DA1418204641F100010D
:10130000F8E7824203D80023FFF706FA10466B681D
:101310001A68AB6802445B68B2FBF3F003FB102071
:1013200038BD000090F824302DE9F04F04462DED33
:10133000048B87B033B99FED680A07B0BDEC048B0E
:10134000BDE8F08FFFF7C8FF01900028F3D0E369F4
:10135000002B08BF0346984228BF184607EE100A24
:10136000D4ED057AB8EE479AF4EEC97AF1EE10FAA8
:1013700004DB77EEC97AC4ED057AEFE794ED058AD0
:10138000B5EEC08AF1EE10FA04D539EE088A84ED84
:10139000058AF3E7FBFE487AFCEEE77A17EE901A2F
:1013A000F8EE678A4F1C8E1CCD1C78EE688AB7FB5E
:1013B000F0F300FB1377B6FBF0F300FB1366B5FB0D
:1013C000F0F300FB1355637C03B1E3680293236AD7
:1013D000A3EB5002B3EB500F01A834BF4FF0FF3323
:1013E0000023BF18039002A843F1000AB61843F186
:1013F0000009AD1843F100088A18CDE9040443F14F
:10140000000303A8FFF770FF3A468346534603A83C
:10141000FFF76AFF324607464B4603A8FFF764FF13
:101420002A460646434603A8FFF75EFF2368F7EE09
:10143000085A03EB8B05BEEE005A03EB8701B0EEB2
:10144000044A95ED006A03EB8602D1ED006A03EBD6
:101450008000B0EE460A92ED007A66EEA57AD0EDF5
:10146000004AA6EEC40AE6EE057AB0EE004AA7EE00
:10147000040AE7EE657AF6EE005A27EE257AA4EE26
:10148000E50AE4EEA57AA6EE057A28EE800A68EE73
:10149000A77A20EE280A67EEA87AA8EEA70AD4ED6C
:1014A000067A38EE278AB4EEC89AA8EE870AF1EEDB
:1014B00010FA98BF38EE498A36EE800A84ED058A24
:1014C000D4ED057AF5EEC07AF1EE10FA44BF79EE6C
:1014D000277AC4ED057A30E70000000010B5074C0C
:1014E00041F23912236801339342236005D90AF08F
:1014F0008BFF034B18600023236010BD700700248E
:10150000680700242DE9F04F4FF0000881460D4692
:101510002DED068B85B00292FFF7E0FF029B984508
:1015200080F0058408F120030193DDE90123934253
:1015300028BF13460393039B98451BD20F4B4FEADA
:101540008804DFED0F8A1B7803F0FF0AD3B92B68FC
:101550002344C3ED008A6B682344C3ED008AAB6863
:101560002344C3ED008AEB6808F101082344C3ED6E
:10157000008AE0E7DDF80480D0E700BFCE870324CF
:1015800000000000D9F80030DFF864B32344B74E00
:10159000D3ED009AD9F80C30234493ED008AB44B74
:1015A000D3ED007AF4EEC87AF1EE10FA40F1C28180
:1015B0009BED007AAF4FF4EEC77AF1EE10FAC0F26D
:1015C000B681012333700AF01FFFAB4B1860002374
:1015D0003B6032784DF6F171A84B8BED008A1A70A2
:1015E000A74A136801338B4288BF00231360A54BC1
:1015F0001A7CA2B1D8681A68411C02EB8002D9603B
:10160000C2ED009A9A68914209D30022C3ED058A7F
:10161000DA604FF480721A82012283F82420BAF132
:10162000000F22D0012737700AF0EEFE924B3946A8
:101630001860954806F090FA0AF0E6FE934B0A30DF
:10164000934A186092F89C307BB192490420DFEDF8
:10165000927A0B789FED917A7B40002B0B7047FEBE
:10166000277AC2ED237AFFF72FFB36780AF0CCFEFB
:101670008B4B1F7847B18B4A1268801AB0F5FA6F0E
:101680008ABF002737461F707E4E3046FFF724FE84
:10169000B3689842FFF45BAF96F824307BB3337C99
:1016A0006BBBB6EE008A03217F48B2EE089A03F0C6
:1016B0001BF97E4B30EE480AB2EE018A1B7820EE11
:1016C000088A28EE098A93B1794B1B787BB1794B54
:1016D000DFED797A93ED000A80EE270A19F07AF9A6
:1016E000764BD3ED000AA0EE098A28EE208AC8EED8
:1016F000090AB0EE000A19F0D7F986ED060ADFF8FC
:10170000F4B1B7EE009ADBED000AF5EEC00AF1EE97
:1017100010FA40F35F81002F00F01B81684BBAF193
:10172000000F00F0138119F05DFE07EE900A654A84
:10173000FAEEE07A624BF5EEC07AF1EE10FA40F183
:10174000FC80C2ED008A01221A7096F82430002B2A
:1017500000F05E815C4B1B78002B00F05981DBEDC3
:10176000006A5A4BF5EEC06AF1EE10FA13DDD6EDC1
:10177000077A002F00F03781514A12785AB1514A46
:10178000F8EE677A92ED007A514A67EE877AC6EDF5
:10179000057A82ED007AF5EEC06A3A48F1EE10FA69
:1017A000CCBF012200221A70FFF7BCFD494B587ACA
:1017B000002800F030811A68AAB159688A429CBF9B
:1017C0000021596059684E1C03EB8101D1ED057A67
:1017D000B2425E60F5EE407A9CBF00215960F1EEA6
:1017E00010FA00FE270A3C499FED3C7A91ED00AAD1
:1017F0003B4979EE4A7A2AEE00AAB0EE4A0AA7EEF1
:10180000A90AD1ED007AF8EEE77A87EE87AADFED34
:10181000227A2AEE27AA2AEE00AA3AB1314E31687E
:10182000013191422ABF0022316032602E490A788C
:10183000002A61D000285FD01A6803EB82000132D1
:10184000C0ED059A4DF6F1701A60824254D900221B
:101850004DF6F270254E0A700121D8601981317061
:10186000C3E900021F4B1A6046E000BF29D40324DD
:10187000480000249087032484D403242AD403241A
:1018800064070024780700247090052430D40324D2
:1018900084D303247C870324CDCC4C3FCDCC4C3E59
:1018A0002BD403248CD4032448F904249DD6032488
:1018B00034D403240C0100240000DC431401002470
:1018C000948703248C900524A88703248487032409
:1018D0008C870324A0070024700000240000C84265
:1018E0004C000024740700246C070024BC870324E8
:1018F0008887032490900524CA4E0027DFEDCA9AFA
:10190000337F002B00F0AB80B369012B40F0858062
:10191000D9F80030234493ED008A7B1E032B00F29C
:101920008980DFE813F063016D01730179013B6881
:1019300001333B604FF0000A4BE6F4EEC97AF1EE5A
:1019400010FA79FE277AC2ED007AFCE683F800A04F
:10195000FBE69FEDB60A19F0A7F8DFEDB57A9FED2B
:10196000B57A20EE270AB44BC0EE077A9FEDB37A22
:1019700067EE877AFCEEE77A17EE902AFAB1DFF885
:10198000C4A21A60DAF8002072B919F02BFD07EE34
:10199000900AAB4AFAEEE07AA74BF5EEC07AF1EE88
:1019A00010FA0ED5C2ED008ADAF800201B68013269
:1019B000B2FBF3F103FB1122CAF80020C5E60122B5
:1019C000DDE7F4EEC97AF1EE10FA79FE277AC2ED7E
:1019D000007AE9E79A4B9B4AC3ED008A0023136023
:1019E000994A1370B1E6964A197892ED007A974AAF
:1019F00039B192ED006AB4EE476AF1EE10FA3FF4A5
:101A0000CAAEF8EE677A67EE877AC6ED057AC0E669
:101A10009FED850ACAE6DA68CEE6022B02D1D9F834
:101A2000043077E7032B02D1D9F8083072E79FED35
:101A30007E8A72E7DFF850A2B0EE480A504618F0EE
:101A400067FD9AED0C0AD6ED037A39EE677A20EE3F
:101A5000270AF6EE007AA7EE080AE0EE279A013789
:101A60002036052F7FF44CAF6B6879EE8A9A784E5A
:101A7000B1EE049A2344C3ED009AAB682344C3ED4E
:101A8000009AF9EE049A2B68234483ED00AA337878
:101A9000002B00F000816F4B9FED6F0A1B7807EE63
:101AA000903A6E4BF8EE677A187877EEC07AB2EE1D
:101AB000080A87EE800AFFF7B7F9B4EEE90AF1EEFB
:101AC00010FA00F1E580B4EE490AF1EE10FA39FEA1
:101AD000008A634B83ED008A624B1B78002B00F079
:101AE000E8803378002B00F0E4805A4B9FED5A7A5F
:101AF0001B7807EE903A594BF8EE677A187877EE34
:101B0000C77AB2EE087A87EE870ADFED577A30EEB1
:101B1000670AFFF789F9B4EEE90AF1EE10FA00F16D
:101B2000C580B4EE490AF1EE047AF1EE10FA37FE00
:101B3000800A4E4B83ED000A4D4B1B78002B00F0C2
:101B4000ED80B4EEE90AF1EE10FA00F1EA80B4EEAD
:101B5000490AF1EE047AF1EE10FA37FE800AB4EE8B
:101B6000E98AF1EE10FA00F1DF80B4EE498AF1EE75
:101B7000047AF1EE10FA37FE888A70EE097ADFED0A
:101B80003D9AB2EE04AA00213B4887EE8A7A27EEFE
:101B9000297ABCEEC77A17EE103A9AB205F0D4FC57
:101BA00038EE098A01213448C8EE0A7A67EEA97A2C
:101BB000FCEEE77A17EE903A9AB205F0C5FC2A6877
:101BC000AB68F0EE086A11196A6823442244D1ED2B
:101BD000007A92ED007A77EE877A93ED007A77EECD
:101BE000877A87EEA67A83ED007ABCE4DFF89CA0C2
:101BF000B0EE480A504618F08BFC9AED0E0A22E728
:101C0000B0EE480A1D4818F0E7FB1CE7B0EE480AA2
:101C10001B4818F035FC16E7B0EE480A194818F0D2
:101C2000FDF910E784D30324000000009A99193EBF
:101C30000000484400007A443C00002400442C4743
:101C40008C90052480870324948703248C870324A5
:101C500044D303248C000024000070424CD303249E
:101C600040D3032494900524ABAAAA3D38D303247F
:101C70008800002400F07F4568F9042450D3032431
:101C8000B8910524D087032438D403246C9105240B
:101C9000B0EE698A1DE7454B1B78023B012B96BFCE
:101CA000434B9FED448A93ED008A15E7B9EE040A91
:101CB0003FE73E4B1B7803F0FD03012B2BD13E4B3E
:101CC0003E4E1B7823B33E4B9FED3E0A1B7807EE3A
:101CD000903A3D4BF8EE677A187877EEC07AB2EE1C
:101CE000080A87EE800AFFF79FF8B4EEE90AF1EEE2
:101CF00010FA0AD4B4EE490AF1EE047AF1EE10FAC1
:101D000037FE800A86ED000A16E7B9EE040AF9E705
:101D100096ED000A10E79FED270A0DE79FED250AD3
:101D20001DE7B9EE040A1AE7B9EE048A25E7274A47
:101D3000536893B3D36983B307EE903AD2ED056A43
:101D4000F8EE677A86EEA77A214B83ED007A214B75
:101D50005A7A2AB31B682BB31F4A07EE903A92EDCA
:101D6000007AF8EE677AB8EE477AC7EE276A1B4B1F
:101D70001B4CC3ED006A236853B10AF045FB23688E
:101D8000984205D30021174805F0E6FE00232360A2
:101D900005B0BDEC068BBDE8F08F9FED067AD3E76A
:101DA000DB68D8E7DFED036AE1E700BF8D000024C0
:101DB00040D30324000000003CD3032438D3032481
:101DC0008A000024000070424CD3032478070024CA
:101DD000AC870324A007002474070024C0870324D1
:101DE00030D403247090052410B5054A0446002120
:101DF000143019F00BFA0023C4E90033238110BD1D
:101E0000C87F03002DE9F04FAD4D2DED028B284624
:101E100083B002F055FD284602F06CFD95F88C4029
:101E20000CB1D5F8E040DFF8048398F80030002BBF
:101E300000F02884A34E96F800A0BAF1000F40F0FD
:101E40008B80DFF8ECA2DFF8ECB2DAF800509E49A4
:101E50005BF82500FEF744FA8146B0FA80F09B4F0C
:101E6000400938703CB12C44052CA8BF052424EA55
:101E7000E474CAF80040DAF8003095495BF8235062
:101E80002846FEF72DFA82469248FEF773FE044676
:101E9000BAF1000F01D100282BD18F492846FEF757
:101EA0001FFA002831D08D492846FEF719FA00287C
:101EB00033D08B492846FEF713FA002833D08949DE
:101EC0002846FEF70DFA002835D0B9F1000F38D0BA
:101ED000002C37D00AF098FA834A1368C31AB3F576
:101EE000C87F04D8002381490B6081490B601060D2
:101EF00028E0012387F800A033707E4BC3F800A0D0
:101F00000AF082FA784B18601CE0002CCBD0022338
:101F10003370794B18603870F2E7002CC9D0032376
:101F20003370764BF6E7002CC9D0754A137883F0EE
:101F3000010313706BE02CB104233370714B1860F4
:101F4000DEE724B903B0BDEC028BBDE8F08F88F862
:101F5000009087F80090D3E7BAF1010F40F0EC80D1
:101F6000DFF89091684BD9F80050574953F8250095
:101F7000FEF7B6F98346B0FA80F0DFF850814009E9
:101F800088F80000002D45D1BBF1000F00F08480DF
:101F90005E4F3B780193F3B94E48FEF7EBFD019B92
:101FA00080B9002C40F083804A48FEF7E3FDBBF186
:101FB000000F40F0FB800028C4D086F800B088F8FD
:101FC00000B09DE7524A87F800A01168514A11609D
:101FD000514A137094E764B14E4A05211368013BDE
:101FE00093FBF1F31C4484F3020404EB84040134F6
:101FF00014603848FEF7BEFD0028A3D0454B1A6890
:10200000434B1A6000233B70434B01221A70FEF7CA
:10201000DDFF75E7012D3FD1BBF1000F3CD03F4FF5
:1020200097F800A0BAF1000F0DD12A48FEF7A2FDE3
:10203000002836D03A4B3D701A683A4B1A603A4B3A
:1020400083F800A05CE7CCB1364BF7EE006AF6EE01
:10205000007A93ED007A37EE667A37EE277ABDEE96
:10206000C77A17EE102A224482F3020407EE904A40
:10207000F8EEE77A77EEA67AC3ED007A1548FEF718
:1020800079FD00283FF45EAF264B1A68244B1A6096
:1020900000233B70244BB8E700231F4A1370224AE9
:1020A00013701A4B1B78002B7FF44CAF79E72C444C
:1020B000022CA8BF022424EAE474C9F8004073E7A4
:1020C00048F9042498D40324AAC9010890D403240D
:1020D000AFC90108D8F90424BEC90108C4C9010860
:1020E000D0C90108DAC9010888D40324AC870324C5
:1020F000C0870324C88703249C87032424D4032493
:1021000034D4032448D3032474000024CC8703244C
:102110008400002480000024CD8703242CD40324D1
:10212000EC000024E80000242DD4032499D40324D7
:1021300094D40324F0000024BAF1020F40F0D780B9
:10214000DFF8D0929B4BD9F800509B4953F82500FB
:10215000FEF7C6F80746B0FA80F0DFF89C82400927
:1021600088F80000002D4DD1002F00F0AB80DFF883
:1021700084A29AF800B0BBF1000F26D18F48FEF779
:10218000F9FCB8B98E4B1B78002B7FF4DBAE3CB169
:102190002C44062CA8BF062424EAE474C9F80040A5
:1021A000002F00F09A808548FEF7E4FC00287FF4B9
:1021B00091AEC7E601238AF80030824B1A68824B41
:1021C0001A60824B83F800B09AE654B17E4A1368D5
:1021D0001C44002C02DC0123136002E0642C0FDCA1
:1021E00014607648FEF7C6FC00283FF4ABAE764B91
:1021F0001A68744B1A6000238AF80030734B04E7A6
:102200006423E9E7012D3AD1002F5BD0DFF8B0A1BC
:102210009AF800B0BBF1000F0CD16848FEF7AAFC99
:10222000002854D06A4B8AF800501A68694B1A602B
:10223000694BC7E72CB1674A1368E3181BD5002325
:1022400013605E48FEF796FC00283FF47BAE614BBE
:10225000DFED626A1B685E4A07EE903A1360F8EEA3
:10226000E77A5F4B87EEA67A83ED007A00238AF83F
:102270000030594BC9E6642BC8BF6423E0E7032D47
:1022800009D1FFB14D48FEF775FC00B3554A1378EC
:1022900083F001039DE6042D06D19FB14748FEF768
:1022A00069FCA0B1504AF2E7052D0BD157B1434864
:1022B000FEF760FC58B14D4B01221A704C4B0022C6
:1022C0001A601DE60023414A1370434A1370494BBC
:1022D0001B78002B7FF436AE54E73848FEF74AFCF3
:1022E00000283FF460AF377088F8007008E6BAF154
:1022F000030F40F04881DFF820813F4F98F800300D
:10230000002B3CD1DFF814A1DFF814B1DAF800504B
:1023100029495BF82500FDF7E3FF8146B0FA80F01C
:10232000400938703CB12C44062CA8BF062424EA8E
:10233000E474CAF80040DAF8005030495BF8250030
:10234000FDF7CEFF04461D48FEF714FCB9F1000F5F
:1023500000F0C482002C00F0C48200283FF4F2ADEB
:10236000012388F80030264B1D60264B1D60264B4C
:10237000A5E700283FF4E6AD86F80090E9E5224E97
:10238000224B35680C4953F82500FDF7A9FFB0FA38
:1023900080F040093870002C64D01D4B1B68002B66
:1023A000C0F2A980164A1068032B5BD8DFE803F05F
:1023B0003A868E9754000024AAC90108D8F904244B
:1023C000958703244C0000245000002498870324A0
:1023D0004000002444000024968703240000C842E3
:1023E000700000249CD603241801002430D3032459
:1023F0002CD303249787032490D40324E1C9010834
:1024000078D3032434D303247CD30324AC000024E6
:102410001C0100249C87032480D3032424D4032498
:10242000CC000024874B03EB4013D3ED007A07EE7A
:10243000104AF8EEC76A9FED847AE6EE877AF5EEE9
:10244000C07AF1EE10FA53D4B7EE007AF4EE477A80
:10245000F1EE10FA77FE277AC3ED007AFEF734FC2E
:10246000FEF7B4FD3C787948FEF784FB002C40F081
:10247000828000283FF466AD3268032A4CD8744C41
:1024800023689A4246D1734B022A19686D4B4FEA72
:1024900041110B4434D0032A37D0012A15BF1A7CCE
:1024A0005A7C82F0010282F0010214BF1A745A743D
:1024B000FEF78CFD4FF0FF33236021E54101614AB7
:1024C0000B1D13440A44D2ED017AB0E741015D4A85
:1024D00001F1080313440A44D2ED027AA7E741014F
:1024E000584A01F10C0313440A44D2ED037A9EE7E3
:1024F000DFED597AB0E7254485F303053560B1E790
:102500009A7C82F001029A74D2E7DA7C82F00102AE
:10251000DA74CDE72260F3E4042A09D14D4B1A683E
:10252000484B03EB42131A7F82F001021A776EE5E3
:10253000052A0ED1474B032242491B6801EB431188
:102540008B6993FBF2F202EB42029B1A01338B611F
:102550005DE5062A7FF4D4AC3E4B112239491B6855
:1025600001EB43114B69013393FBF2F202EB0212D0
:102570009B1A4B614BE500283FF4E4AC002388F83C
:1025800000303360BCE4BAF1040F7BD1334F3B68B9
:10259000062B2EDD06233B60314B3D68314953F855
:1025A0002500FDF79DFE8046B0FA80F0DFF8D09060
:1025B000400989F8000034B12C44062CA8BF062439
:1025C00024EAE4743C602148FEF7D4FAB8F1000F25
:1025D00030D000283FF4B6AC3B6873B922490722DB
:1025E0000B780133B3FBF2F2C2EBC2029B1A0B7001
:1025F0000DE5002BD0DA0023CDE7012B01D11B4ADA
:1026000094E4022B01D11A4A90E4032B05D1194A14
:10261000137803F0030302338BE4042B01D1164A31
:10262000F6E7052B7FF46CAC144A1378013303F002
:1026300003037EE400283FF485AC86F8008089F827
:1026400000805DE484D30324CDCCCC3CD8F90424B1
:102650001C01002478D303240000000048D3032485
:1026600090000024AAC901084CD3032494900524A7
:1026700088000024890000248B0000248D000024A1
:1026800090D403249E48FEF775FA70B109F0BCFEA1
:102690009C4A1368C31AB3F5C87F00F2D8800023A0
:1026A00099490B6099490B6010609948994C03F067
:1026B000ADFF08B3984B002598481A684AF6444382
:1026C000294625625A43002384F8245063614FF061
:1026D0007E53A260E261A361C4E90002920018F097
:1026E00095FD01238E4A23821370E56009F08CFE6C
:1026F0008C4B18608C4B1D708548FEF744FA70B9FE
:10270000874D2B785BB120748248FEF7E5FD20B140
:10271000012384F824300023636100232B70A56813
:10272000002D00F09D807B48FEF7D6FD07EE900A55
:10273000B8EE677A07EE905AF8EE677AC7EE276A26
:102740007A4B00217A48C3ED006A02F0CDF80121EE
:102750007748B0EE408A02F0C7F8DFED767A764D22
:10276000B4EEE70AF1EE10FA7DD500232B6069483C
:10277000FEF7B2FDA368714A98422CBF01210021E7
:102780001170C0F08C80A3B1DFED6D6ADFED6D7A62
:10279000E8EE267AB0EE677A07EE903AF8EE677ABE
:1027A00067EE877AFCEEE77A17EE902A934228BF0D
:1027B000134602215E48E36102F096F8A268002AFF
:1027C0005ED12262604803F021FFE0B15F4C2046F9
:1027D000FFF70AFB5E4A002104F1140018F016FD11
:1027E00040F201125B49002322810122E3600A705A
:1027F00059490B605949C4E900330B700021584B0B
:102800001960584B1A705048FEF7BDF900287FF444
:1028100099AB504D4D4B2A781AB91A7A002A3FF4D9
:1028200091AB002449481C81DC60C3E90044FFF7F8
:10283000DBFA4A4B4A4A1C7000232C701360494A49
:102840001470324A1360444B1C60FFF77BBB0123BA
:10285000454988F8003000230B6044490B7023E79A
:10286000DFED436A6CE770EE677A9FED420AF7EEA0
:10287000080A87EE800A18F017F985ED000A76E756
:1028800007EE902AF8EE677A27EE800AFCEEC07A0F
:1028900017EE903A9A4200D8531E236292E71D48E1
:1028A000FEF71AFD012838BF012007EE900AF8EE66
:1028B000677ABCEEE77A17EE103AB6EE007A9842E5
:1028C00094BFE061E36167EE877AFCEEE77A17EE8A
:1028D000903A984298BF00F1FF33DEE7002C7FF476
:1028E00048AD00283FF42EAB234A137883F0010350
:1028F0001370002B7FF404AB204B4FF0FF32DFE46A
:10290000D8F9042488D40324AC870324C087032483
:10291000ACFA04247807002484000024000000C0DE
:10292000B1870324B4870324B0870324A487032436
:1029300048F90424CDCC4C3D90900524A88703246D
:1029400072F97F3F17B7D138C4FA0424A0070024D6
:10295000C87F03006C07002474070024BC8703248D
:10296000B8870324C487032494D4032490D4032475
:10297000000000003333733F28D4032434D30324EE
:1029800000F12C0300F22C404A4203F8012B834251
:10299000FAD17047083008B5FFF7F2FF08BD70B5EF
:1029A000044600F12C06B02529462046FEF716F90C
:1029B000013500212046FEF711F910212046EDB225
:1029C000FEF70CF9012104F1180005F0C5F83146B5
:1029D000642380222046803608F04CF9B82DE3D1DC
:1029E00070BD083008B5FFF7DAFF08BD0246D0E930
:1029F0000230181A44BF5368C018704713B5044614
:102A00000191FFF7F3FF01996368013B98420ED0F3
:102A1000A36820685A1CA260902202FB030018F0F1
:102A2000E7FBD4E90123934224BF9B1AA36002B0C1
:102A300010BD70B51546A4B004464618B4420ED079
:102A40006A4614F8011B05F1240003F005FE002876
:102A5000F4D0694605F1C000FFF7D0FFEEE724B0DF
:102A600070BD70B51546A4B004464618B4420ED0E9
:102A70006A4614F8011B05F1080003F0EDFD00287B
:102A8000F4D0694605F1A400FFF7B8FFEEE724B0E3
:102A900070BD70B5D1E90234A4B00646A3420D461C
:102AA00006D19022002118F0B1FB304624B070BD51
:102AB00090220968684602FB0411013418F098FB63
:102AC0006B68EC6090229C426946304624BFE41A51
:102AD000EC6018F08DFBE8E77F2910B511D83F2A8C
:102AE0000FD8D40802F0070201EBC41101240844F6
:102AF00004FA02F290F92C1052B21BB1114380F883
:102B00002C1010BD21EA0201F9E7083008B5FFF7E3
:102B1000E3FF08BD2DE9F04F1F4685B0144608308D
:102B2000DDF838A0A7EB01089DF83C300D46AAEB74
:102B30000209B8F1000F0393B8BFC8F10008B9F15A
:102B4000000F0290B8BFC9F1000992458CBF012265
:102B50004FF0FF328F428CBF4FF0010B4FF0FF3B25
:102B6000394601925246FFF7B7FFA8EB0906DDE9A7
:102B70000203BD4201D1544516D029462246039393
:102B80000290FFF7A9FFC9F100017200B1EB460FF7
:102B9000BCBFA6EB09065D449045DDE90203E8DD14
:102BA000019A46441444E4E705B0BDE8F08F2DE9EE
:102BB000F047089F06460C46904699469DF824A08B
:102BC0004C450DD84546BD4208D82A4653462146B5
:102BD00006F108000135FFF77FFFF4E70134EFE766
:102BE000BDE8F0872DE9F7439DF830C004468946DB
:102BF000164698460A9D9DF82C70BCF1000F05D032
:102C00000B9703B0BDE8F043FFF7D1BFCDE9002734
:102C1000FFF780FF4346324641462046CDE9005744
:102C2000FFF778FF4B462A4641462046CDE900573C
:102C3000FFF770FF4B462A4649462046CDE900671C
:102C4000FFF768FF03B0BDE8F0832DE9F04F0E46B3
:102C500085B0044604A9A6F120059DF838B001E925
:102C60000C00EBB25E2B04D90026304605B0BDE85F
:102C7000F08F03689DF80870DB689DF809A09847FD
:102C8000A3883B449842EFDB236820469B68984723
:102C9000E38853449842E7DB0AFB05F54FF000094F
:102CA0006D00CA451DD9039B4FF000085B5B019383
:102CB0004745A188E28810D9019B41444A4404F168
:102CC000080003FA08F308F101081B044CBF5B4637
:102CD0008BF00103FFF700FFEAE709F10109023574
:102CE000DFE7A1882046E288394489B2FDF758FF22
:102CF000BBE7F0B585B006464C1E02AD9DF82870C6
:102D000085E80C0014F8011F41B10097304695E8A2
:102D10000C00FFF79AFF21788842F3D0084605B0EF
:102D2000F0BD00002DE9F04FAD4FAE4A97F82430CA
:102D30003846DFF86CB32DED068B13709FB0AA4BAD
:102D40001C7AAA4B1C70FEF7C7FA07EE900ADFED5B
:102D5000A86AA84BF8EE677A87EEA67A8BED007A20
:102D6000002C00F0C080A44A12681A609C4801251B
:102D7000FEF7B2FABB68DFF82C93002198429F4E11
:102D80009F4C34BF00200120DFF81C8389F800002D
:102D90009C48FFF7F5FD322200219B48FDF700FF1C
:102DA0009A4B9B4918780095002808BF31469648F1
:102DB00094E80C00FFF79DFF32220A219248FDF7AC
:102DC000EFFE98F8000093490095002808BF3146AF
:102DD0008D4894E80C00FFF78CFF322214218A48BA
:102DE000FDF7DEFE8C4B1B78002B00F088800095F1
:102DF0008A4994E80C008448FFF77BFF884B1B78D6
:102E0000002B00F08880874BD3F800C0BCF1040F82
:102E100000F28180844E12AD0FCE0FC53368834916
:102E20002B601EAB03EB8C0C5CF8302C06A818F062
:102E300027FB322256217448FDF7B2FE012306A972
:102E40007148009394E80C00FFF753FF00216D4890
:102E5000FFF796FD764B1B78002B00F0AF85754B86
:102E60001D78002D6CD1744F04263C68042CCCBF17
:102E700004230023E41A24EAE47404F10508B8F1F9
:102E8000060FA8BF4FF00608A04540F3DB840A21D7
:102E900032465D48FDF784FE3B68684DA3424FF023
:102EA000010359480CBF66496649009395E80C0038
:102EB000FFF71FFF032C3BD1634B12A8634A19781D
:102EC000634B002908BF1A46624918F0D9FA01235A
:102ED00012A9009395E80C000B364B480134FFF71C
:102EE00008FFB6B2D0E75C4AF7EE007A9FED5B7A56
:102EF0001278002A47FE277AC3ED007A36E7584B4E
:102F00001B7800951BB1574994E80C0073E794E8CF
:102F10000C0031466FE7544B9FED547AD3ED007AA5
:102F2000534967EE877AFDEEE77A17EE902A7DE740
:102F300001235049009351F8241095E80C00CBE789
:102F4000012D40F0C7804C4F04263B68042BCCBFBA
:102F5000042200229B1A23EAE375022D00F37284F7
:102F6000062132462848FDF71BFE3B682648AB4247
:102F70004FF001030CBF32493249009394E80C0032
:102F8000FFF7B7FEE5B93D4B1B781BB13C4B1A6808
:102F90003C4906E03C4B1A683C4B1B78002BF7D0B1
:102FA0003B4912A818F06CFA012312A9009394E887
:102FB0000C000B3614480135FFF79BFEB6B2CCE788
:102FC000012D40F08080334B1B78002B6ED0324BAC
:102FD000D3ED007AFDEEE77A17EE902A2F49E0E76D
:102FE00078070024B0870324A0070024C4870324A3
:102FF00000555748B8870324C08703240DCA010829
:1030000050050024448C05243C8C0524B1870324FE
:1030100029C80108EAC9010829D403241FC80108E6
:1030200028D4032434D303244CC70108FBC9010866
:1030300099D4032498D4032494D403245805002459
:1030400009CA01080CCA010834D40324F1C80108D4
:10305000E7C801080FCA0108BC870324000000006C
:103060002BD403247BE90108700000240000C8422F
:1030700002CA0108F0000024C8870324CC87032477
:103080008000002425CA010884000024CD87032481
:1030900036CA01082CD40324E800002449CA0108D8
:1030A000A4870324A88703249CD60324934BD3ED41
:1030B000007A934BFDEEE77A1B7817EE902A002BEF
:1030C0008CD090496DE701238F490093896894E87B
:1030D0000C006EE7022D75D104260025062132462C
:1030E0008A48FDF75DFD8A4B88481B68AB424FF06C
:1030F00001030CBF87498849009394E80C00FFF74F
:10310000F8FD2DBB854B1B781BB1854B1A68854993
:1031100006E0854B1A68854B1B78002BF7D0844955
:1031200012A818F0ADF9012312A9009394E80C003D
:10313000013576480A36FFF7DCFD072DB6B2CDD152
:103140007C48FFF72CFC1FB0BDEC068BBDE8F08F70
:10315000012D0ED1784B1B781BB1784B1A6878493A
:10316000DEE7784B1A68784B1B78002BF7D077494D
:10317000D6E7022D05D101237549009394E80C0090
:10318000D6E7032D08D198F80010724A724B002937
:1031900008BF1A467149C3E7042D08D1704B714A24
:1031A0001978714B002908BF1A467049B8E7052DF8
:1031B0004FF0010308BF6E49009318BF6D4994E8B2
:1031C0000C00B5E7032D40F00B836B4B1B78002BF5
:1031D00034D16A4F04263B68042BCCBF0422002262
:1031E0009B1A23EAE37505F10508B8F1070FA8BF9C
:1031F0004FF00708A84540F325830A21324643488B
:103200000B36FDF7CDFC3B685D4CB6B2AB424FF0E0
:1032100001033E480CBF3F493F49009394E80C002E
:10322000FFF767FD012357490093384851F82510EF
:10323000013594E80C00FFF75CFDDBE7DFF86881FF
:103240000426D8F80050042DCCBF04230023ED1A27
:1032500025EAE5756F1D082FA8BF0827AF4240F388
:10326000F1820A2132462948FDF79AFCD8F800304D
:103270002648AB424FF001030CBF26492649009374
:1032800094E80C00FFF735FD3F4A404B11681B687E
:1032900000290FDB481B41424141002D40F00881CD
:1032A000042B00F2AD80DFE813F007000700810077
:1032B000B700DF000021F0E7354AF3EE047A9FED16
:1032C000357A02EB43133448344AD3ED006A93F85D
:1032D00010C0002908BF0246E6EE877A304B009204
:1032E000BCF1000F08BF03462E49FDEEE77A17EE4A
:1032F000902A12A818F0C4F882E000BFEC00002465
:103300002DD4032458CA0108740000243C8C0524E1
:103310009C87032409CA01080CCA01089787032463
:103320005000002469CA01084C0000249887032437
:1033300074CA0108448C05249587032444000024A2
:1033400081CA010840000024968703248DCA010821
:103350009BCA0108F1C80108E7C80108A7CA01080B
:1033600018010024ECC90108F0C90108B0CA01081D
:10337000B9CA0108AAC9010880D3032424D40324AC
:1033800058050024CC0000241C01002478D3032419
:1033900084D3032400401C470BE90108F4C9010849
:1033A00099CA0108C8CA01087CD30324B74B9FED12
:1033B000B87AD3ED106ADFEDB77A93F85020E6EED5
:1033C000877AB548B54B002A08BF0346B44A00299E
:1033D00008BF0246B349BDEEE77ACDE90032F8EE08
:1033E000C76A17EE102A77EEE67AF2EE046A67EE05
:1033F000A67AFDEEE77A17EE903A12A818F040F898
:1034000001230B3612A9A84800930135B6B294E8FF
:103410000C00FFF76EFC21E79C4B9FED9D7AD3EDEE
:10342000186ADFED9C7A93F87020E6EE877A9A4866
:103430009A4B002A08BF0346994A002908BF024652
:103440009A49BDEEE77ACDE90032F8EEC76A17EE89
:10345000102A77EEE67AF2EE046A67EEA67AFDEEBF
:10346000E77A17EE903AC8E7884B8B48D3ED207A7D
:1034700093F8902077EEA77A884B002A08BF03467E
:10348000874ABDEEE77A002908BF02468849F8EE70
:10349000C76ACDE9003277EEE67A17EE102AF2EE2F
:1034A000046A67EEA67AFDEEE77A17EE903AA4E793
:1034B000012D40F09780042BA2D8DFE803F003032E
:1034C00023476F00714A9FED727A02EB43137248F3
:1034D000734AD3ED017A93F811C0002908BF024660
:1034E00067EE877A6D4BB2EE047A0092BCF1000F62
:1034F00008BF03466F4967EE877AFDEEE77A17EE5D
:10350000902AF6E6614B6448D3ED117A93F8512086
:1035100077EEA77A614B002A08BF0346604ABDEEEA
:10352000E77A002908BF02466349F8EEC76ACDE989
:10353000003277EEE67A17EE102AF2EE046A67EEB2
:10354000A67AFDEEE77A17EE903A56E74F4B9FEDDD
:10355000507AD3ED196ADFED4F7A93F87120E6EED9
:10356000877A4D484D4B002A08BF03464C4A002934
:1035700008BF02465149BDEEE77ACDE90032F8EEC8
:10358000C76A17EE102A77EEE67AF2EE046A67EE63
:10359000A67AFDEEE77A17EE903A2EE73B4B3E48CF
:1035A000D3ED217A93F8912077EEA77A3B4B002A4E
:1035B00008BF03463A4ABDEEE77A002908BF024633
:1035C0003F49F8EEC76ACDE9003277EEE67A17EEAA
:1035D000102AF2EE046A67EEA67AFDEEE77A17EE9D
:1035E000903A0AE7022D40F09880012BB2EE046A6F
:1035F000264827DC002B27DB00EB4313DFED247A82
:10360000DFED246A93ED027A9A7CE7EE276A22487E
:10361000224B002A08BF0346214A002908BF024660
:103620002849BDEEE67ACDE90032F8EEC77A17EE0A
:10363000102A76EEE76A66EE867AFDEEE77A17EEF6
:10364000903ADAE6042B43D000EB43131248D3ED53
:10365000027A9A7C77EEA77A104B002A08BF0346BD
:103660000F4ABDEEE77A002908BF02461649F8EE78
:10367000C76ACDE9003277EEE67A17EE102A67EED8
:10368000867AFDEEE77A17EE903AB6E684D3032405
:103690006666E63FCDCCCC3D0BE9010899CA01082E
:1036A000F4C90108D1CA01083C8C0524DDCA01080F
:1036B000E9CA0108F7CA010802CB01082ACB0108B0
:1036C0000ECB01081BCB010836CB0108CDCCCC3D7D
:1036D000F3EE007AD0ED226A1FED047A90F8922082
:1036E000A6EEA77A8F48904B002A08BF03468F4A60
:1036F000002908BF02468E49FDEEC76ACDE90032B7
:10370000F8EEE67A16EE902A37EE677A67EE067ADA
:10371000FDEEE77A17EE903A6FE6032D1FD1854A4A
:103720009FED857A02EB43138048D3ED037A93F83B
:1037300013C067EE877A7B4B002908BF18467A4989
:10374000FDEEE77ABCF1000F18BF0B4600907B49F5
:1037500017EE902A0132642AA8BF6422C9E5042D1D
:1037600012D1744A02EB4313704A187F6D4B002943
:1037700018BF13467249734A002808BF0A467249A7
:1037800012A817F07DFE3BE6052D0AD1694A67486D
:1037900002EB4312634B9269002918BF03466B4941
:1037A000EEE7062D15D1634A02EB43135A694AB975
:1037B0005E4A5C4B002908BF1A46654912A817F0FB
:1037C0005FFE1DE65948574B002918BF0346614963
:1037D000D6E7564A534B002908BF1A465E49EDE723
:1037E000042D7FF4ADAC002706212A465B48FDF787
:1037F000D7F95B4B59481B68BB424FF001030CBF24
:1038000058495949009394E80C00FFF772FA002FC9
:1038100053D1564B1B78062B4AD8554A554952F876
:10382000232012A817F02CFE0123013712A94B48C0
:10383000009394E80C00FFF75CFA05F10A02072FE9
:1038400095B2D1D14C4B1B78002B3FF479AC0A22B6
:1038500036230124002511464048CDE90034762363
:10386000464CFFF7A4F9142223213C48FDF798F9B0
:1038700043490095394894E80C00FFF73AFA1E22B4
:1038800023213648FDF78CF93E490095334894E8EA
:103890000C00FFF72EFA282223213048FDF780F98B
:1038A0000095374994E80C002C48FFF722FA47E4CA
:1038B000354912A817F004FEB6E7012F08D1334BA3
:1038C000204A19781E4B002908BF1A463049A8E73C
:1038D000022F08D12F4B1B4A1978194B002908BF1A
:1038E0001A462D499DE7032F03D12C4B2C491A78FA
:1038F00097E7042F03D12B4B2B491A7891E7052F1B
:103900000DD12A4B0AAE0FCB86E80F00284B1EAA1A
:1039100028491B7802EB830353F8502C81E7264992
:10392000C7E700BF0BE9010899CA0108F4C90108FB
:1039300028CB010884D303240000484343CB01086B
:10394000E7C80108F1C8010855CB010862CB01089E
:103950006ECB01087ACB010885CB01083C8C05248D
:1039600048D3032409CA01080CCA01084CD3032414
:10397000200000248CCB010890D403245805002497
:103980001DCA010821CA010896CB0108949005249C
:10399000A5CB010888000024B4CB010889000024CD
:1039A000BDCB01088B000024CDCB010860C7010806
:1039B0008D000024DDCB0108AAC901083C4BDFEDD6
:1039C0003D9A1B783C4C002B00F05482DFF814A188
:1039D000DAF80060042E00F24D82DFF80CC112AD5F
:1039E000032EBCE80F000FC5DCF800302B60334D10
:1039F00043D0042E50D0022E30D005EB4613F3EE08
:103A0000047A9FED2F7A1EAAD3ED006A02EB86029C
:103A10002C49E6EE877A52F8302CFDEEE77A17EE65
:103A2000903A0AA84FEA461817F02AFD1C220221F4
:103A30002548FDF7B5F801230AA92348009394E827
:103A40000C00FFF756F9DAF80030042B60D8DFE8F5
:103A500013F04F004F00A901B501C501F2EE047A41
:103A6000D5ED106A9FED217A184AE6EE877A18495B
:103A7000FDEEE77A17EE903AD3E7F2EE047AD5ED51
:103A8000186A9FED1A7A134AE6EE877A1249FDEE1C
:103A9000E77A17EE903AC4E7D5ED207A0F4A67EE41
:103AA000A97A0F49FDEEE77A17EE903AB9E700BF21
:103AB00028D403240000C8424805002484D30324EA
:103AC00000189C46E9CB01083C8C05241DC8010860
:103AD000F1CB010821C80108F9CB010826C801086B
:103AE00001CC010834D303244CC701080000B442C0
:103AF00005EB08031FED037ACC49D3ED017A67EE9D
:103B0000877AFDEEE77A17EE902A0AA817F0B8FC3C
:103B10001C222221C6487601FDF742F801230AA99A
:103B2000C348009394E80C00FFF7E3F8DAF800309C
:103B3000012B00F35F81002BC0F25E814544F2EE61
:103B4000047A9FEDBC7AD5ED026ABB49E6EE877A2E
:103B5000FDEEE77A17EE902A0AA817F091FC1C22D6
:103B60004221B348FDF71CF801230AA9B04800938D
:103B700094E80C00FFF7BDF8DAF800300AA8042B2F
:103B8000AE4B1E440CBFAE49AE49D6ED037A67EE8C
:103B9000A99AFDEEE97A17EE902A17F071FC1C2223
:103BA0006221A348FCF7FCFF012300930AA9A04867
:103BB0009FEDA58A94E80C00FFF79BF801240023F1
:103BC0002C2202219A48CDE90143382300937E2319
:103BD000FFF708F89BED007A27EE087AFDEEC77A2A
:103BE00017EE903A002B0BDD1BB2372203219048D1
:103BF00023EAE373009201942D220333FEF7D7FFEB
:103C000099F80030002B4AD0D7ED077AB6EE007A4B
:103C100036240025F8EE675AD7ED087A2D2284481D
:103C2000F8EE677AE5EEC77A97ED027AB8EE476A62
:103C3000CDE90045C5EE866A87EE867AB7EE006A62
:103C4000B5EEC07AF1EE10FA48BF9FED807A77EEBC
:103C5000267AF4EEC67AF1EE10FAC8BF76EE476A1D
:103C600027EE087A66EE886ABDEEC77AFDEEE66A50
:103C700017EE101A16EE903A0331022BACBFCB1898
:103C80008B1C04910593FEF792FF0122059B04997A
:103C900067480295CDE900422D22FEF7A3FF6C4B49
:103CA0001B78002B64D099F80030002B6FD0FB6993
:103CB000B6EE007AF7EE005A07EE903AB8EE676A71
:103CC000D7ED087AF8EE677AE6EE477A97ED027A52
:103CD000F8EE476A87EEA67AC6EE267AB5EEC07A87
:103CE000F1EE10FA48BF9FED597A77EE276AF4EEAD
:103CF000E56AF1EE10FAC8BF75EEC77A27EE087ACA
:103D000067EE887ABDEEC77AFDEEE77A17EE104AC5
:103D100017EE902A0334022AB8BF022207EE902A37
:103D20007A68F8EEE77A002A00F04281002B00F072
:103D30003F81D7ED056A86EE867A01252D223C4823
:103D400067EE877AFDEEE77A17EE903A23441C4639
:103D500036232146CDE900352346FEF7DBFE2A2334
:103D60002822611E0093631931480195FEF71FFF59
:103D700099F800305BB10123002203212C48CDE9E2
:103D8000013237232D2200937D23FEF72BFF0022E3
:103D900028212748FCF704FF01222E4B00922E49D0
:103DA0000CCB81E505EB08032C49D3ED017A67EED6
:103DB000A97AFDEEE77A17EE902AA6E605EB08034E
:103DC000F2EE047A9FED1B7AD3ED016A2449E6EE08
:103DD000877AFDEEE77A17EE902A96E605EB080360
:103DE0002049D3ED017A67EEA97AFDEEE77A17EE66
:103DF000902A8AE6042B0AD035441B49D5ED027A75
:103E000067EEA97AFDEEE77A17EE902AA4E645441C
:103E1000B1EE007ADFED157AD5ED026A1449E6EECF
:103E2000877AFDEEE77A17EE902A95E60BCC01082B
:103E30003C8C05240000B4421BCC010884D303242D
:103E40002ECC010835CC01080000F442000000002F
:103E5000B08703245805002464CC010810CC010865
:103E600023CC010815CC010828CC0108CDCCCC3DD1
:103E700021CC0108504B1B78002B00F094804F4E52
:103E800012AD0FCE0FC50FCE0FC596E80F0085E817
:103E90000F004B4B0C210AA81A78B2FBF1F301FB7F
:103EA00013221EA9013BD2B201EB820245490978D7
:103EB0000091454952F8302C17F0E2FA0125122200
:103EC00002214248FCF76CFE0AA90095B6EE009A62
:103ED0003E4894E80C00FEF70CFF00213C4800F03F
:103EE00003FDF0EE408A0221394800F0FDFC032179
:103EF0003748B0EE40AA00F0F7FC68EE898AF0EE91
:103F0000497A9FED347A40F2E73333490AA8B0EE9C
:103F1000408AE8EE877AF0EE498AEAEE298AFDEED9
:103F2000E77A17EE902A9A42A8BF1A4617F0A8FA25
:103F30001C2202212548FCF733FE0AA900952348DC
:103F400094E80C00FEF7D5FEFDEEE87A23490AA8B6
:103F500017EE902A17F094FA1C2222211B48FCF736
:103F60001FFE0AA90095194894E80C00FEF7C1FE4F
:103F7000B2EE010A38EE498A1949F2EE087A0AA827
:103F800028EE008A28EE278AB8FE488AFDEEC87A15
:103F900017EE902A17F074FA1C2242210B48FCF706
:103FA000FFFD009502E60F490AA817F089FA85E798
:103FB0009FED0D7AC1E600BF9DD6032470C70108AE
:103FC00010010024080100243BCC01083C8C05248E
:103FD00048F9042400007A4454CC010859CC010863
:103FE0005ECC01084BCC0108000000002DE9F04731
:103FF000F2B00021B44800260DF59C7800F032FFA5
:10400000142200214046B14C17F000F94146B04857
:104010002AAF03F01BFA002121A826AD02F01EFCF6
:104020004FF4407320464FF0020923804FF0000AFE
:1040300050F8041B02F05EFD04F1080002F0C4FB1E
:104040002246201D22ACA34902F090FD204602F03A
:10405000F1FAA14BCDF848914F96CDE9226394E84F
:104060000F009E4C87E80F0085E80F0084E80F00E2
:10407000104647F61222012531465492BA885395CC
:10408000ADF83A21FA88C4E90503ADF838211A469B
:10409000CDE9505617F0BAF8414604F1100007F088
:1040A00087FE04F1240002F08FFB224604F1100089
:1040B0008B49FCF74DFD8B4C31468B48FEF760FC7D
:1040C0000A2219218948FCF76BFD89490095874828
:1040D00094E80C00FEF70DFE19221E218348FCF720
:1040E0005FFD84490095814894E80C00FEF701FECD
:1040F0007D48FEF754FC2946734800F05DFF40F60A
:10410000B83008F083F9704800F0D6FB7A496E4861
:1041100000F0D0FB4FF4FA7008F078F9774B4FF0CD
:104120007E52774831461E829A61764A1860C3F8FB
:1041300014A083F82460DE60C3E90726C3E90122E6
:10414000714A17F063F87148FDF74EFE704B1E6020
:10415000704BC3F800A0704BC3F800A0FCF7B0FE92
:104160009FED6E0A04466E4816F0AEF99FED6B0A9D
:104170006C4816F0A9F96C4816F020F96B4816F057
:1041800079F99FED660A6A4815F07EFE3046FCF725
:104190009BFD2846FCF798FD4846FCF795FD03205B
:1041A000FCF792FD0420FCF78FFD002C3DD1614B04
:1041B0004FF07C5260484FF0030C60499860986261
:1041C0001864586404205E4EDA60DA62DA645A6673
:1041D000DA6619605E609D611D7719625E621C631C
:1041E00083F83C40C3F848A01C6583F85C4019661E
:1041F000C3F868A01C6783F87C40C3E91505052057
:10420000C3E90449C3E90DC5C3E91D05C3F880101E
:10421000C3F88C200622C3F88460C3F888A0C3F8D2
:10422000904083F89C40C3E92525464B01221A7033
:10423000454B1B7803B3454802F0A6FC50B94448EF
:1042400002F0C2FA414802F0A3FC204A2149101DA5
:1042500002F08CFC3F48FEF7C9FB60B338463D498D
:10426000FEF717FC2EA98022684616F0C1FF97E8DA
:104270000F00FCF725FFEDE7374807F08DFE40B94A
:10428000364802F0A1FA154A154902F11000FCF770
:104290005FFC3348FEF7AAFB68B140463049FEF7A1
:1042A000F8FB52A98022684616F0A2FF98E80F009A
:1042B000FCF706FFEDE7FDF7A5FDFEF733FD0A204D
:1042C00008F0A4F8B4E700BF48F904240068042407
:1042D00068F90424632A000801070106A0D6032414
:1042E000332A000858050024448C05243C8C0524FE
:1042F0006CCC01087BCC0108051500087807002468
:10430000000000C0545D030050750D00A00700249C
:1043100064070024A4870324B887032400442C479F
:1043200038D403246C91052450D30324B891052478
:10433000D087032484D30324CDCCCC3D9A99993ED5
:10434000CDCC4C3ECE8703241801002404680424FD
:1043500008680424A4680424B0D60324C4D6032423
:1043600060D703242DE9F043914685B00446984672
:1043700008464B46DDE90C52A3EB090C13F8011B70
:104380000029F9D198F8006098F8011016FB0CF696
:104390000F4636B226EAE676082A76D8DFE802F03B
:1043A0006B05270B35453C536100B5F90020B5F985
:1043B0000230228053E02B88A988B5F902200B44F3
:1043C00062809B1B2380A680E780628821880390FF
:1043D000FCF7E6FB9DF8383049460398009398E8CF
:1043E0000C00FEF786FC204605B0BDE8F083B5F969
:1043F0000430B5F9021003EBD3722B88618003EB14
:104400006203A3EB66032380DDE76B88B5F9002028
:10441000ED882B445B1ACCE76B88EA8813445B1A5F
:104420002A88A9880A44921BC3E76B88EA88134448
:104430005B1AB5F9042002EBD2712A8802EB610203
:10444000A2EB6602B5E7B5F90630B5F9001003EB4B
:10445000D3726B88218003EB6203A3EB5703638065
:10446000B1E7B5F9063003EBD3726B8803EB620357
:10447000A3EB5103D4E7B5F9063003EBD3726B8895
:1044800003EB6203A3EB5103D3E700232380638094
:10449000A380E38099E700002DE9F04F2DED068B16
:1044A00087B01C4603929DF86030DDE916289FED29
:1044B000B64BB8F1000F0493BCBF4244C8F10008EA
:1044C00007EE902A02EB0803B8EEE76B07EE103A0E
:1044D0009FEDAF5B26EE046BB8EEC77BCDE9010123
:1044E00086EE050B27EE047BF7EEC08B87EE050BFF
:1044F000F7EEC09BB0EE680A16F03EF907EE904A60
:10450000B8EE67AA2AEE008AB0EE680A16F060FCE0
:1045100060EE4A8AB0EE690A16F02EF92AEE009A89
:10452000B0EE690A16F054FC20EE4AAA39EE487A39
:10453000049B7AEE687A67EEA77AE7EE077AB0EE28
:10454000007AF4EEC77AF1EE10FA08D5B8F1B40F9C
:1045500000F3CA8007B0BDEC068BBDE8F08F0022E7
:1045600001276542C4F101040026BB46BA46640037
:10457000B9460492049A002A6ED107EE906A7242FC
:10458000B8F1B40FF8EEE76A07EE905AB8EEE77AA2
:1045900007EE902AC5F1000266EE884AF8EEE77A47
:1045A00006EE102A27EE285A66EE896AB8EEC66A29
:1045B00067EE885A27EE0A7A66EE283A67EE897A1D
:1045C00026EE0A6A34EEE34A74EEC54A35EEC55A61
:1045D000B5EEC04A75EEE35A40F39180F1EE10FA61
:1045E00000F1848036EEC64AB5EEC04AF1EE10FA0C
:1045F000CCBF4FF001094FF00009F5EEC04AF1EED3
:1046000010FA76D476EEC76AF5EEC06AF1EE10FACB
:10461000CCBF4FF0010A4FF0000AB5EEC05AF1EEE0
:1046200010FA69D437EEC77AB5EEC07AF1EE10FA17
:10463000CCBF4FF0010B4FF0000BF5EEC05AF1EE7E
:1046400010FA00F19B8077EEC67AF5EEC07AF1EEB3
:1046500010FACCBF01270027B9F1000F09D0039A47
:1046600002990198B218491B05930830FEF734FAF5
:10467000059BBAF1000F09D0039A02990198B2186C
:10468000691805930830FEF727FA059BBBF1000F68
:1046900009D0039A02990198921B69180593083072
:1046A000FEF71AFA059B4FB1039A02990198921BE3
:1046B000491B05930830FEF70FFA059BA6425FDB06
:1046C000013604EB4602EE4202F1010202D1A5429C
:1046D00002DB0024A54255DA013502EB4502541CE9
:1046E000002D7FF747AF35E7012239E74FF0010989
:1046F00083E74FF0010A90E74FF0010B9DE7F1EEE1
:1047000010FA32D536EEC64AB5EEC04AF1EE10FACE
:10471000CCBF4FF001094FF00009F5EEC04AF1EEB1
:1047200010FA25D576EEC76AF5EEC06AF1EE10FAFA
:10473000CCBF4FF0010A4FF0000AB5EEC05AF1EEBF
:1047400010FA18D537EEC77AB5EEC07AF1EE10FA46
:10475000CCBF4FF0010B4FF0000BF5EEC05AF1EE5D
:1047600010FA3FF570AF002776E7DDF81090D4E738
:104770004FF0000AE1E74FF0000BEEE701276BE78F
:104780002246A7E71446ABE77A008BFCFA210940E2
:1047900000000000008066402DE9F843304C002600
:1047A000304D40F20F782046DFF80491FCF728FAEC
:1047B0002A462D49204615F0D3FF2C484FF440736C
:1047C00040F201172A4C2A462A49C0F8B060C0E9D5
:1047D000003600F1B403C0E92798C0F8A430C0E95E
:1047E0002A7615F0BDFF204601F024FF04F1D00326
:1047F0002A46214920462661C4F8B890A4F8BC8016
:10480000C4E93037C4E9326615F0AAFF2A461B49CD
:104810001B4815F0A5FF2A4618491A4815F0A0FFB5
:10482000102319482A461949037015F099FF2A46A2
:104830001749184815F094FF2A461749174815F0EC
:104840008FFF174B174902221748C3E93312C6607E
:104850002A4606741549BDE8F84315F081BF00BF2C
:1048600048F9042400000024050B00080068042413
:10487000A0D603241F0B00080F0B0008070B00082D
:1048800038D403246C91052450D303240B0B000867
:104890000D0B0008B8910524090B0008D0870324EC
:1048A000989005244E415247A0070024210B000890
:1048B0000080707F00F078BB183002F0B7BB00BFFB
:1048C00010B50446E43001F0FFFD04F5827001F0FC
:1048D000FBFD04F5927001F0F7FD04F5A270BDE850
:1048E000104001F0F1BD00BF00EB411191ED3C0A19
:1048F000704700BF883001F039BE00BF00000000E3
:1049000030B56FF0F4139BB04FF60B720446CDE94F
:104910000733ADF82420ADF84C20CDE9113300F079
:104920004FFB012853D0304900220123CDF822103B
:10493000CDE90E232D4803210123002200882C4DB0
:10494000ADF84A004FF480700A9114914FF4007151
:10495000B5F800C00D93069210931993ADF84C2052
:10496000ADF844006846ADF8481006A9ADF846C059
:104970009FED1B7BCDE90B32CDE91533CDE9172235
:1049800040F204531B4A8DED007B0792ADF82030B6
:1049900004F006FF10A901A804F002FF164B04F171
:1049A0007400196800F04CFC144B0DF1080C4FF02A
:1049B0007C5E0FCB8CE80F00DDE90023614604F13B
:1049C0001400CDF810E001F0CDFC1BB030BD064A5C
:1049D00000230E90CDF822200F93ABE7AFF30080B9
:1049E000000000000000000004060403C8CD010818
:1049F000CCCD010804020404BCCD0108A0C7010805
:104A0000F0B54FF60B72002400210646002006F197
:104A1000180706F1E4052DED028BD7B09FED448A0F
:104A2000CDE90801CDE91201ADF80820ADF81C2050
:104A3000ADF83020ADF84420ADF85C20ADF8702022
:104A4000ADF88420ADF89820ADF8B02005940A9414
:104A50000F9414941A941F94249429942F94CDE9BC
:104A60000344CDE90D44CDE91D44CDE92744CDE90A
:104A70002D44CDE91801CDE92201CDE93201CDE97E
:104A80003C01CDE94201CDE94C012A4902A8ADF82B
:104A9000C4200968ADF8D820ADF8EC20ADF80421A9
:104AA000ADF81821ADF82C21ADF840210222349444
:104AB00039943E94449449944E945394CDE93744A8
:104AC000CDE94744CDE9514402F098F81A4B02224F
:104AD00017A8196802F092F8184B02222CA819683E
:104AE00002F08CF8164B022241A8196802F086F8F1
:104AF000042302A938461A4602F090F8E1B238467B
:104B000002F0AAFA014601343046019100F050FA51
:104B10002846F0EE480A002301220199203501F0D1
:104B2000A1FC042CEAD157B0BDEC028BF0BD00BF54
:104B30006F12033B9CCD0108A0CD0108A4CD010854
:104B4000A8CD0108000000002DE9F041C3A3D3E97E
:104B5000002390B049F2FC2500240126054400F50D
:104B60001348BD4905F1180700940E913846089680
:104B70008DF83C40CDE9042302230022CDE90C331B
:104B80000023CDE906230823324609932346CDE9C5
:104B90000A4402F0EFFE32462346BDF83A10404682
:104BA000009402F0E7FE04A9284605F0DBFF214649
:104BB000404602F0D1FF0A2007F028FC314640466B
:104BC00002F0CAFF0A2007F021FCAE232146384636
:104BD0008DF80F3002F0C0FF32460DF10F01642353
:104BE000284606F047F8D523214638468DF80F3081
:104BF00002F0B2FF32460DF10F016423284606F0A1
:104C000039F88023214638468DF80F3002F0A4FF92
:104C100032460DF10F016423284606F02BF8A82335
:104C2000214638468DF80F3002F096FF32460DF1DE
:104C30000F016423284606F01DF83F23214638461D
:104C40008DF80F3002F088FF32460DF10F0164231A
:104C5000284606F00FF8DA23214638468DF80F3043
:104C600002F07AFF32460DF10F016423284606F068
:104C700001F81223214638468DF80F3002F06CFF00
:104C800032460DF10F016423284605F0F3FFD323CC
:104C9000214638468DF80F3002F05EFF324664231D
:104CA0000DF10F01284605F0E5FF214638468DF845
:104CB0000F4002F051FF32460DF10F0164232846E8
:104CC00005F0D8FF4023214638468DF80F3002F01A
:104CD00043FF32460DF10F016423284605F0CAFF59
:104CE000A623214638468DF80F3002F035FF3246B4
:104CF0000DF10F016423284605F0BCFFA4232146D3
:104D000038468DF80F3002F027FF32460DF10F01C3
:104D10006423284605F0AEFF8D23214638468DF8E2
:104D20000F3002F019FF32460DF10F0164232846BF
:104D300005F0A0FF1423214638468DF80F3002F00D
:104D40000BFF32460DF10F016423284605F092FF58
:104D5000A123214638468DF80F3002F0FDFE324681
:104D60000DF10F016423284605F084FFC823214676
:104D700038468DF80F3002F0EFFE32460DF10F018C
:104D80006423284605F076FF8123214638468DF8B6
:104D90000F3002F0E1FE32460DF10F016423284688
:104DA00005F068FF8F23214638468DF80F3002F05A
:104DB000D3FE32460DF10F016423284605F05AFF59
:104DC000D923214638468DF80F3002F0C5FE324611
:104DD0000DF10F016423284605F04CFF25232146E1
:104DE00038468DF80F3002F0B7FE32460DF10F0154
:104DF0006423284605F03EFFDB23214638468DF824
:104E00000F3002F0A9FE32460DF10F01642328464F
:104E100005F030FF3423214638468DF80F3002F07C
:104E20009BFE32460DF10F016423284605F022FF58
:104E3000AF23214638468DF80F3002F08DFE6423F3
:104E400032460DF10F01284605F014FF10B0BDE801
:104E5000F08100BFAFF300800104010F060B0B00CF
:104E60000105060A2DE9F047044698B00126002501
:104E7000039100F097F80399204600F05FF904F1E0
:104E8000200A20464FF00209FFF73AFD2046FFF7BF
:104E90005BFE11A9504605AF04F5D278CDE9146543
:104EA000CDE9129502F0D2FA49462A46504602F060
:104EB0004BFB354B354A04F1880035499FED350AE7
:104EC0001B681268096801F023FB334B49F2287014
:104ED000324619682B462044009502F04BFD2F4BBB
:104EE000324604F5B270196801F07EFB2C4B324655
:104EF00004F5BE70196801F077FB2046FFF724FE29
:104F0000384601F097FB47F612230DF1240E04F505
:104F1000CA7CCDF854900DF1340917931396169668
:104F2000149597E80F008CE80F0089E80F008EE8D1
:104F30000F00BDF838301290ADF84630BDF83A3069
:104F4000D4E96767ADF84430C4E96A6727B13A46E7
:104F50002946304616F05AF911A9404606F028FFB6
:104F600004F5DC7001F030FC2046FFF749FD04F544
:104F700010441123C4F8403707F046FAC4F83C0740
:104F800018B0BDE8F08700BFB0CD0108C4CD01085E
:104F9000C0CD010800000000ACCD0108B4CD01086F
:104FA000B8CD0108704700BF143001F027BA00BF28
:104FB00090ED1B0A704700BF283002F0CDBD00BF46
:104FC00010B540F203338EB000244FF60B7240F25E
:104FD0000341ADF8083009A80123ADF81020ADF861
:104FE00024202246ADF80C100094029907940C94EA
:104FF000CDE90544CDE90A4402F0BCFC04A8012334
:1050000022460399009402F0B5FC09A802F098FD2D
:1050100010B901200EB010BD04A802F091FDA0420D
:105020000CBF022020460EB010BD00BF2DE9F0419C
:1050300003239AB04FF0010800254FF60B74074682
:10504000CDE91438394BADF84C40CDE91053A3F1FC
:105050009F63A3F57D43CDE916581293FFF7B0FF88
:105060004045064623D0022842D040F60132304B5C
:1050700007F158000BACADF82C200B991895CDF822
:105080006480CDF84A3000F0DBF810A907F1700019
:1050900004F086FB274B0FCB84E80F003A6F2146C4
:1050A00007F1140001F026F91AB0BDE8F0811023D1
:1050B0001F4A06A906908DF828300BAC1E4BCDF880
:1050C0004A2007930295CDE91805CDE9080502A805
:1050D00002F0C6FE0823029A03A92046ADF80C6030
:1050E0008DF80E50049605930B9500F0E9F8CCE787
:1050F00040F60133ADF82C4000200BACADF8183071
:1051000001210B4B42460095CDF84A302B460E95B7
:10511000CDE9180106992046CDE90C5502F02AFC8C
:105120002946204602F018FDAFE700BF0402040440
:1051300004060403B0C701080704010B2DE9F0477A
:1051400004462DED028B82B0002949D0012140F2A6
:10515000011200230091ADF804208DF80630354A85
:105160000127354B04F10409344904F13C0862601D
:1051700040F20272A36040F60663E16004F1280A7F
:105180002285A3872782E762276407F0EDFA0546A8
:1051900007F03EF96946064650BB4DB304F1500096
:1051A0008DF8067007F060FA072D3ED104F1140562
:1051B0002046FFF73BFF284601F01CF92846B0EED9
:1051C000408A01F013F9D0ED007AF8EE677A88EEA4
:1051D000277A84ED1B7A02B0BDEC028BBDE8F08724
:1051E00040F2011300918DF80610ADF80430B6E7D7
:1051F00004F1500007F038FA072D13D04946204635
:1052000003F01EFE0EB9002DD0D15146504602F0DB
:10521000EDF94046414602F0E9F904F1120000F0D0
:1052200079F9C3E7002EF0D1C0E74946204603F0E4
:1052300007FEBBE70508050905070506050A06067A
:1052400030B585B0002504460122ADF80C102B4680
:105250000399009502F08EFB0121204602F07CFCB0
:10526000012007F0D3F82946204602F075FC012002
:1052700007F0CCF80121204605B0BDE8304002F02F
:105280006BBC00BF10B5C2F3002384B00C46017C98
:105290008DF80D2043EA4402FA2402238DF80C20F5
:1052A00003AA009402F074FE18B10124204604B051
:1052B00010BD04460A2007F0A9F8204604B010BD2E
:1052C000034670B543F8042B044684B007C983E84D
:1052D0000700A37983B91A210B461E22FA252374ED
:1052E0002046ADF80C20022303AA009502F050FEE0
:1052F00028B1012004B070BD1B210B46EDE70A2048
:1053000007F084F84FF4B85200950223ADF80C2052
:10531000204603AA217C02F03BFE0028E9D10A20A6
:1053200007F074F841F2027200950223ADF80C20E8
:10533000204603AA217C02F02BFE0028D9D10A20A6
:1053400007F064F8042200950223ADF80C202046F3
:1053500003AA217C02F01CFE0028CAD10A2007F013
:1053600055F8062200950223ADF80C20204603AA2A
:10537000217C02F00DFE0028BBD10A2007F046F880
:1053800041F2082200950223ADF80C20204603AA22
:10539000217C02F0FDFD0028ABD10A20064607F073
:1053A00035F80095022303AA217C2046ADF80C6055
:1053B00002F0EEFD00289CD1304607F027F800955A
:1053C00022790C232046002A8DF80C3003AA4FF0D6
:1053D000020314BF622142218DF80D10217C02F0DE
:1053E000D7FD002885D1304607F010F82279D4E99E
:1053F00002310B43DBB20AB943F0400362790AB1D0
:1054000043F020030E22FA258DF80D30204600953A
:1054100002238DF80C2003AA217C02F0B9FD00289C
:105420007FF467AF0A2006F0F1FF102200950223F7
:10543000ADF80C20204603AA217C02F0A9FD00282B
:105440007FF457AF0A2006F0E1FF122100950223F6
:10545000ADF80C1003AA217C204602F099FD00282B
:105460007FF447AF0A2006F0D1FF01220921204630
:10547000FFF708FF003818BF01203BE7F0B5102305
:1054800087B0234C012200250126002702A92046CF
:105490000195CDE902234FF48052CDE904670FF066
:1054A000A9FF642007F0DCFE02A94FF480522046D9
:1054B000CDE9046702261027CDE902670FF09AFFB5
:1054C0000322102302A92046CDE90223002304224F
:1054D000CDE904234FF480520FF08CFF40F23223C9
:1054E000042202A9019310232046CDE90223019A48
:1054F000012305924FF4805204930FF07BFF40F696
:10550000060120460FF096FF284607B0F0BD00BF09
:10551000C89105241C4B00221C494FF0400C30B5AB
:10552000054689B00220596007219A601A62012459
:10553000DA620A224FF4006EDC6006922022CDE986
:10554000000104200821CDE9020103201021CDE94A
:10555000040108206946C3E904024FF4C072181D13
:10556000C3E906C24FF48052C3E909E20FF018FF05
:1055700038B92846FFF782FF003818BF012009B06C
:1055800030BD204609B030BDC491052440410052D1
:10559000614A0021D0B513688EB00A91002B40F00B
:1055A000B9805E4B01214FF683700C2411600221FB
:1055B000D3F8D4200026032742F48052C3F8D42025
:1055C000D3F8D42002F480520092009AD3F8E0205D
:1055D00042F01002C3F8E020D3F8E02002F01002FD
:1055E0000192019AD3F8E02042F04002C3F8E02093
:1055F000D3F8E02002F040020292029AD3F8E020B1
:1056000042F00802C3F8E020D3F8E02002F00802DC
:105610000392039AD3F8E02042F48072C3F8E020AA
:10562000D3F8E02002F480720492049AD3F8E020C8
:1056300042F08002C3F8E020D3F8E02002F08002BC
:105640000592059AD3F8E02042F02002C3F8E0204A
:10565000D3F8E02002F020020692069AD3F8E02068
:1056600042F00402C3F8E020D3F8E0300C9403F0D9
:10567000040307930323079A0B93CDE9080108A9B4
:1056800027480AF0C9F848F23712022308A925482A
:105690000C94CDE90823CDE90A670AF0BDF84CF275
:1056A0000372022308A920480C94CDE90823CDE910
:1056B0000A670AF0B1F840F2FF62022308A91B480A
:1056C0000C94CDE90823CDE90A670AF0A5F84FF656
:1056D0000C72022308A916480C94CDE90823CDE9E1
:1056E0000A670AF099F84FF63F02022308A9114809
:1056F0000C94CDE90823CDE90A670AF08DF8202241
:10570000022308A90A480C94CDE90A67CDE90823C9
:105710000AF082F80EB0D0BDC091052400440258B2
:105720000010025800180258000C025800200258BD
:10573000001C0258001402582DE9F04FDFF81084C5
:1057400006460D46144608F118002DED028B89B06F
:1057500000AF04F01DF9D8F8183073B3D8F81C3036
:10576000D8F80490002B43690BBF4FF0080A4FF0A4
:10577000100A4FF0020B4FF0040BB9F1000F2AD0C2
:10578000A200EA46012B02F1070222F00702ADEB6C
:10579000020D6846ADEB020D694600F03F81022B19
:1057A00000F0D680002B6FD02246C847D54624375C
:1057B000BD46BDEC028BBDE8F08FD8F81C30002B45
:1057C000F5D0D8F804904FF0080A4FF0020B436967
:1057D000B9F1000FD4D1FB61D8F80030BB61002BC8
:1057E000E5D0D54804F046F96B46BBF1020F78616D
:1057F00008EE103AFB6900F083816A465146A2EB3D
:10580000C40295466200EA46B2FBFBF2AAEBC40072
:1058100085460AEB8200EE46F861ADEB010DF869B2
:105820000EEB820CC7F810C0EC46ADEB010D00EB9F
:105830008201CCF80400CCF8081001EB8201386931
:10584000E946CCF80C1000EB8201CCF800A001EB8B
:105850008202C9E900E0C9E90212012B00F0648369
:10586000022B00F06C82002B00F080816208494618
:105870006046BB69984718EE103A24379D46BD46EE
:10588000BDEC028BBDE8F08F002C8DD01A46D8ED10
:105890000C6A9FEDB27A8446331D36F922E00CF192
:1058A000080C07EE90EA33F922E00232F8EEE77ACC
:1058B000944267EE877A67EEA67A4CED027A07EE9D
:1058C00090EAF8EEE77A67EE877A67EEA67A4CED13
:1058D000017AE2D8F9612246C847984ED8ED0D6AA0
:1058E0000020F9692B1D9FED9E7A9FED9E6ADFEDEA
:1058F0009E5A22E0F4EEC67AF1EE10FAC0F2C884A5
:1059000047F6FE72D1ED017A45F8202066EEA77ABF
:10591000F4EEC77AF1EE10FA40F2F080F4EEC67AB7
:10592000F1EE10FAC0F2D58447F6FE7243F820205B
:105930000230083184427FF639AFD1ED007A66EE4D
:10594000A77AF4EEC77AF1EE10FAD3D83246D9E747
:10595000002C3FF429AFD8ED0C6A84469FED787A8D
:105960000022331D8E4656F822100CF1080C07EE6B
:10597000901A53F822100232F8EEE77A944267EE5A
:10598000877A67EEA67A4CED027A07EE901AF8EE67
:10599000E77A67EE877A67EEA67A4CED017AE2D86D
:1059A00071462246C7F81CE0C847664ED8ED0D6A1E
:1059B0000020F9692B1D9FED6A7A9FED6A6ADFF876
:1059C00094C120E0F4EEC67AF1EE10FAC0F27984C8
:1059D0003246D1ED017A45F8202066EEA77AF4EE42
:1059E000C77AF1EE10FA40F28780F4EEC67AF1EE53
:1059F00010FAC0F25E84324643F8202002300831AB
:105A000084427FF6D3AED1ED007A66EEA77AF4EE4B
:105A1000C77AF1EE10FAD5D86246DAE7002C3FF4E7
:105A2000C3AED8ED0C6A86469FED477A4FF0000C66
:105A3000331D56F82C200EF1080E82F40002A2F558
:105A4000000207EE902A53F82C200CF1020CF8EE1D
:105A5000E77A82F400026445A2F5000267EE877AD5
:105A600067EEA67A4EED027A07EE902AF8EEE77A14
:105A700067EE877A67EEA67A4EED017AD9D8F9619A
:105A80002246C847314ED8ED0D6A0020F9692B1D1A
:105A90009FED337A9FED336ADFF8BCC01FE0F4EE70
:105AA000C67AF1EE10FAC0F2FC833246D1ED017AEB
:105AB00045F8202066EEA77AF4EEC77AF1EE10FAE8
:105AC00018D9F4EEC67AF1EE10FAC0F2DA83324653
:105AD00043F820200230083184427FF667AED1EDD2
